{
  "_format": "hh-sol-artifact-1",
  "contractName": "RoomRegistry",
  "sourceName": "contracts/RoomRegistry.sol",
  "abi": [
    {
      "inputs": [
        {
          "internalType": "address",
          "name": "initialOwner",
          "type": "address"
        }
      ],
      "stateMutability": "nonpayable",
      "type": "constructor"
    },
    {
      "inputs": [
        {
          "internalType": "address",
          "name": "owner",
          "type": "address"
        }
      ],
      "name": "OwnableInvalidOwner",
      "type": "error"
    },
    {
      "inputs": [
        {
          "internalType": "address",
          "name": "account",
          "type": "address"
        }
      ],
      "name": "OwnableUnauthorizedAccount",
      "type": "error"
    },
    {
      "anonymous": false,
      "inputs": [
        {
          "indexed": true,
          "internalType": "address",
          "name": "previousOwner",
          "type": "address"
        },
        {
          "indexed": true,
          "internalType": "address",
          "name": "newOwner",
          "type": "address"
        }
      ],
      "name": "OwnershipTransferred",
      "type": "event"
    },
    {
      "anonymous": false,
      "inputs": [
        {
          "indexed": true,
          "internalType": "bytes32",
          "name": "roomId",
          "type": "bytes32"
        },
        {
          "indexed": true,
          "internalType": "address",
          "name": "owner",
          "type": "address"
        }
      ],
      "name": "RoomCreated",
      "type": "event"
    },
    {
      "anonymous": false,
      "inputs": [
        {
          "indexed": true,
          "internalType": "bytes32",
          "name": "roomId",
          "type": "bytes32"
        },
        {
          "indexed": true,
          "internalType": "address",
          "name": "previousOwner",
          "type": "address"
        },
        {
          "indexed": true,
          "internalType": "address",
          "name": "newOwner",
          "type": "address"
        }
      ],
      "name": "RoomOwnershipTransferred",
      "type": "event"
    },
    {
      "inputs": [
        {
          "internalType": "bytes32",
          "name": "roomId",
          "type": "bytes32"
        }
      ],
      "name": "createRoom",
      "outputs": [],
      "stateMutability": "nonpayable",
      "type": "function"
    },
    {
      "inputs": [
        {
          "internalType": "address",
          "name": "account",
          "type": "address"
        }
      ],
      "name": "getOwnedRooms",
      "outputs": [
        {
          "internalType": "bytes32[]",
          "name": "",
          "type": "bytes32[]"
        }
      ],
      "stateMutability": "view",
      "type": "function"
    },
    {
      "inputs": [
        {
          "internalType": "bytes32",
          "name": "roomId",
          "type": "bytes32"
        }
      ],
      "name": "getRoomOwner",
      "outputs": [
        {
          "internalType": "address",
          "name": "",
          "type": "address"
        }
      ],
      "stateMutability": "view",
      "type": "function"
    },
    {
      "inputs": [
        {
          "internalType": "bytes32",
          "name": "roomId",
          "type": "bytes32"
        },
        {
          "internalType": "address",
          "name": "account",
          "type": "address"
        }
      ],
      "name": "isHost",
      "outputs": [
        {
          "internalType": "bool",
          "name": "",
          "type": "bool"
        }
      ],
      "stateMutability": "view",
      "type": "function"
    },
    {
      "inputs": [],
      "name": "owner",
      "outputs": [
        {
          "internalType": "address",
          "name": "",
          "type": "address"
        }
      ],
      "stateMutability": "view",
      "type": "function"
    },
    {
      "inputs": [
        {
          "internalType": "bytes32",
          "name": "roomId",
          "type": "bytes32"
        },
        {
          "internalType": "address",
          "name": "account",
          "type": "address"
        }
      ],
      "name": "ownsRoom",
      "outputs": [
        {
          "internalType": "bool",
          "name": "",
          "type": "bool"
        }
      ],
      "stateMutability": "view",
      "type": "function"
    },
    {
      "inputs": [],
      "name": "renounceOwnership",
      "outputs": [],
      "stateMutability": "nonpayable",
      "type": "function"
    },
    {
      "inputs": [
        {
          "internalType": "address",
          "name": "newOwner",
          "type": "address"
        }
      ],
      "name": "transferOwnership",
      "outputs": [],
      "stateMutability": "nonpayable",
      "type": "function"
    },
    {
      "inputs": [
        {
          "internalType": "bytes32",
          "name": "roomId",
          "type": "bytes32"
        },
        {
          "internalType": "address",
          "name": "newOwner",
          "type": "address"
        }
      ],
      "name": "transferRoomOwnership",
      "outputs": [],
      "stateMutability": "nonpayable",
      "type": "function"
    }
  ],
  "bytecode": "0x608060405234801561001057600080fd5b5060405161075438038061075483398101604081905261002f916100be565b806001600160a01b03811661005e57604051631e4fbdf760e01b81526000600482015260240160405180910390fd5b6100678161006e565b50506100ee565b600080546001600160a01b038381166001600160a01b0319831681178455604051919092169283917f8be0079c531659141344cd1fd0a4f28419497f9722a3daafe3b4186f6b6457e09190a35050565b6000602082840312156100d057600080fd5b81516001600160a01b03811681146100e757600080fd5b9392505050565b610657806100fd6000396000f3fe608060405234801561001057600080fd5b50600436106100935760003560e01c80638ae01ab8116100665780638ae01ab8146100f15780638da5cb5b146101305780638e7c02d0146100f157806392a3aafa14610155578063f2fde38b1461017e57600080fd5b8063212b2e1f146100985780632e1ca42a146100c1578063715018a6146100d65780637f0cd380146100de575b600080fd5b6100ab6100a6366004610576565b610191565b6040516100b89190610598565b60405180910390f35b6100d46100cf3660046105dc565b6101fd565b005b6100d4610337565b6100d46100ec3660046105f5565b61034b565b6101206100ff3660046105f5565b600091825260016020526040909120546001600160a01b0391821691161490565b60405190151581526020016100b8565b6000546001600160a01b03165b6040516001600160a01b0390911681526020016100b8565b61013d6101633660046105dc565b6000908152600160205260409020546001600160a01b031690565b6100d461018c366004610576565b61049f565b6001600160a01b0381166000908152600260209081526040918290208054835181840281018401909452808452606093928301828280156101f157602002820191906000526020600020905b8154815260200190600101908083116101dd575b50505050509050919050565b8061025b5760405162461bcd60e51b8152602060048201526024808201527f526f6f6d52656769737472793a20726f6f6d49642063616e6e6f7420626520656044820152636d70747960e01b60648201526084015b60405180910390fd5b6000818152600160205260409020546001600160a01b0316156102ca5760405162461bcd60e51b815260206004820152602160248201527f526f6f6d52656769737472793a20726f6f6d20616c72656164792065786973746044820152607360f81b6064820152608401610252565b600081815260016020818152604080842080546001600160a01b03191633908117909155808552600283528185208054948501815585529184209092018490559051909183917fcab422d6f970f05bf3bc5893a95c3c8601f68b4d92c10297cfd18e3e7c0195a89190a350565b61033f6104dd565b610349600061050a565b565b6001600160a01b0381166103b15760405162461bcd60e51b815260206004820152602760248201527f526f6f6d52656769737472793a206e6577206f776e6572206973207a65726f206044820152666164647265737360c81b6064820152608401610252565b6000828152600160205260409020546001600160a01b031633146104265760405162461bcd60e51b815260206004820152602660248201527f526f6f6d52656769737472793a2063616c6c6572206973206e6f7420726f6f6d6044820152651037bbb732b960d11b6064820152608401610252565b600082815260016020818152604080842080546001600160a01b0319166001600160a01b0387169081179091558085526002835281852080549485018155855291842090920185905590513392839186917fd856ebbb51182fac145d353259608b5a94dcd09f2aba38006a20c4cdab6e5e4a91a4505050565b6104a76104dd565b6001600160a01b0381166104d157604051631e4fbdf760e01b815260006004820152602401610252565b6104da8161050a565b50565b6000546001600160a01b031633146103495760405163118cdaa760e01b8152336004820152602401610252565b600080546001600160a01b038381166001600160a01b0319831681178455604051919092169283917f8be0079c531659141344cd1fd0a4f28419497f9722a3daafe3b4186f6b6457e09190a35050565b80356001600160a01b038116811461057157600080fd5b919050565b60006020828403121561058857600080fd5b6105918261055a565b9392505050565b6020808252825182820181905260009190848201906040850190845b818110156105d0578351835292840192918401916001016105b4565b50909695505050505050565b6000602082840312156105ee57600080fd5b5035919050565b6000806040838503121561060857600080fd5b823591506106186020840161055a565b9050925092905056fea26469706673582212205aef9b4eb09d1bd9baa7cac40105f1ebd8268076963d8fd1ec697a56d6894a9664736f6c63430008180033",
  "linkReferences": {},
  "deployedLinkReferences": {}
}